{
  "_format": "hh-sol-artifact-1",
  "contractName": "ConfidentialAlpha",
  "sourceName": "contracts/ConfidentialAlpha.sol",
  "abi": [
    {
      "inputs": [],
      "stateMutability": "nonpayable",
      "type": "constructor"
    },
    {
      "inputs": [
        {
          "internalType": "bytes32",
          "name": "handle",
          "type": "bytes32"
        },
        {
          "internalType": "address",
          "name": "sender",
          "type": "address"
        }
      ],
      "name": "SenderNotAllowedToUseHandle",
      "type": "error"
    },
    {
      "anonymous": false,
      "inputs": [
        {
          "indexed": true,
          "internalType": "address",
          "name": "user",
          "type": "address"
        },
        {
          "indexed": false,
          "internalType": "string",
          "name": "message",
          "type": "string"
        }
      ],
      "name": "AlphaComputed",
      "type": "event"
    },
    {
      "inputs": [
        {
          "internalType": "externalEuint32",
          "name": "marketInput",
          "type": "bytes32"
        },
        {
          "internalType": "bytes",
          "name": "inputProof",
          "type": "bytes"
        }
      ],
      "name": "computeConfidentialAlpha",
      "outputs": [
        {
          "internalType": "ebool",
          "name": "",
          "type": "bytes32"
        }
      ],
      "stateMutability": "nonpayable",
      "type": "function"
    },
    {
      "inputs": [],
      "name": "owner",
      "outputs": [
        {
          "internalType": "address",
          "name": "",
          "type": "address"
        }
      ],
      "stateMutability": "view",
      "type": "function"
    },
    {
      "inputs": [
        {
          "internalType": "ebool",
          "name": "decision",
          "type": "bytes32"
        }
      ],
      "name": "requestAgentExecution",
      "outputs": [],
      "stateMutability": "nonpayable",
      "type": "function"
    },
    {
      "inputs": [
        {
          "internalType": "externalEuint32",
          "name": "input",
          "type": "bytes32"
        },
        {
          "internalType": "bytes",
          "name": "inputProof",
          "type": "bytes"
        }
      ],
      "name": "setSpendingGoal",
      "outputs": [],
      "stateMutability": "nonpayable",
      "type": "function"
    }
  ],
  "bytecode": "0x608060405234801561001057600080fd5b5033600160006101000a81548173ffffffffffffffffffffffffffffffffffffffff021916908373ffffffffffffffffffffffffffffffffffffffff160217905550610ef3806100616000396000f3fe608060405234801561001057600080fd5b506004361061004c5760003560e01c806309513854146100515780631deba9081461006d578063580572521461009d5780638da5cb5b146100b9575b600080fd5b61006b60048036038101906100669190610960565b6100d7565b005b61008760048036038101906100829190610960565b61013c565b60405161009491906109e1565b60405180910390f35b6100b760048036038101906100b29190610a28565b6101bd565b005b6100c161029c565b6040516100ce9190610a96565b60405180910390f35b6101258383838080601f016020809104026020016040519081016040528093929190818152602001838380828437600081840152601f19601f820116905080830192505050505050506102c2565b600081905550610136600054610358565b50505050565b60008061018d8585858080601f016020809104026020016040519081016040528093929190818152602001838380828437600081840152601f19601f820116905080830192505050505050506102c2565b905060006101a5826101a0610320610386565b6103a0565b90506101b0816103ea565b5080925050509392505050565b600160009054906101000a900473ffffffffffffffffffffffffffffffffffffffff1673ffffffffffffffffffffffffffffffffffffffff163373ffffffffffffffffffffffffffffffffffffffff161461024d576040517f08c379a000000000000000000000000000000000000000000000000000000000815260040161024490610b0e565b60405180910390fd5b3373ffffffffffffffffffffffffffffffffffffffff167f4919576132c5d1795a1a91d25cf0a5010a4641f4b268b74db0a2b4188bccc64960405161029190610ba0565b60405180910390a250565b600160009054906101000a900473ffffffffffffffffffffffffffffffffffffffff1681565b6000808251146102df576102d883836004610418565b9050610352565b60008390506000801b8103610300576102f86000610386565b915050610352565b61030a8133610566565b61034d5780336040517f0276b5d9000000000000000000000000000000000000000000000000000000008152600401610344929190610bcf565b60405180910390fd5b809150505b92915050565b60006103638261061c565b610374576103716000610386565b91505b61037e823061062c565b819050919050565b60006103998263ffffffff1660046106ce565b9050919050565b60006103ab8361061c565b6103bc576103b96000610386565b92505b6103c58261061c565b6103d6576103d36000610386565b91505b6103e283836000610786565b905092915050565b60006103f58261085e565b61040657610403600061086e565b91505b610410823061062c565b819050919050565b600080610423610893565b90508060010160009054906101000a900473ffffffffffffffffffffffffffffffffffffffff1673ffffffffffffffffffffffffffffffffffffffff166308bf832a863387876040518563ffffffff1660e01b81526004016104889493929190610cff565b6020604051808303816000875af11580156104a7573d6000803e3d6000fd5b505050506040513d601f19601f820116820180604052508101906104cb9190610d77565b91508060000160009054906101000a900473ffffffffffffffffffffffffffffffffffffffff1673ffffffffffffffffffffffffffffffffffffffff16633e395cec83336040518363ffffffff1660e01b815260040161052c929190610bcf565b600060405180830381600087803b15801561054657600080fd5b505af115801561055a573d6000803e3d6000fd5b50505050509392505050565b600080610571610893565b90508060000160009054906101000a900473ffffffffffffffffffffffffffffffffffffffff1673ffffffffffffffffffffffffffffffffffffffff166382027b6d85856040518363ffffffff1660e01b81526004016105d2929190610bcf565b602060405180830381865afa1580156105ef573d6000803e3d6000fd5b505050506040513d601f19601f820116820180604052508101906106139190610ddc565b91505092915050565b60008060001b8214159050919050565b6000610636610893565b90508060000160009054906101000a900473ffffffffffffffffffffffffffffffffffffffff1673ffffffffffffffffffffffffffffffffffffffff1663b9496b6284846040518363ffffffff1660e01b8152600401610697929190610bcf565b600060405180830381600087803b1580156106b157600080fd5b505af11580156106c5573d6000803e3d6000fd5b50505050505050565b6000806106d9610893565b90508060010160009054906101000a900473ffffffffffffffffffffffffffffffffffffffff1673ffffffffffffffffffffffffffffffffffffffff16639cd07acb85856040518363ffffffff1660e01b815260040161073a929190610e22565b6020604051808303816000875af1158015610759573d6000803e3d6000fd5b505050506040513d601f19601f8201168201806040525081019061077d9190610d77565b91505092915050565b600080821561079b57600160f81b90506107a3565b600060f81b90505b60006107ad610893565b90508060010160009054906101000a900473ffffffffffffffffffffffffffffffffffffffff1673ffffffffffffffffffffffffffffffffffffffff166385362ee78787856040518463ffffffff1660e01b815260040161081093929190610e86565b6020604051808303816000875af115801561082f573d6000803e3d6000fd5b505050506040513d601f19601f820116820180604052508101906108539190610d77565b925050509392505050565b60008060001b8214159050919050565b600061088c8261087f576000610882565b60015b60ff1660006106ce565b9050919050565b60007f9e7b61f58c47dc699ac88507c4f5bb9f121c03808c5676a8078fe583e4649700905090565b600080fd5b600080fd5b6000819050919050565b6108d8816108c5565b81146108e357600080fd5b50565b6000813590506108f5816108cf565b92915050565b600080fd5b600080fd5b600080fd5b60008083601f8401126109205761091f6108fb565b5b8235905067ffffffffffffffff81111561093d5761093c610900565b5b60208301915083600182028301111561095957610958610905565b5b9250929050565b600080600060408486031215610979576109786108bb565b5b6000610987868287016108e6565b935050602084013567ffffffffffffffff8111156109a8576109a76108c0565b5b6109b48682870161090a565b92509250509250925092565b60006109cb826108c5565b9050919050565b6109db816109c0565b82525050565b60006020820190506109f660008301846109d2565b92915050565b610a05816108c5565b8114610a1057600080fd5b50565b600081359050610a22816109fc565b92915050565b600060208284031215610a3e57610a3d6108bb565b5b6000610a4c84828501610a13565b91505092915050565b600073ffffffffffffffffffffffffffffffffffffffff82169050919050565b6000610a8082610a55565b9050919050565b610a9081610a75565b82525050565b6000602082019050610aab6000830184610a87565b92915050565b600082825260208201905092915050565b7f4f6e6c79206167656e74206f776e65722063616e206578656375746500000000600082015250565b6000610af8601c83610ab1565b9150610b0382610ac2565b602082019050919050565b60006020820190508181036000830152610b2781610aeb565b9050919050565b7f457865637574696f6e206c6f67696320766572696669656420636f6e6669646560008201527f6e7469616c6c792076696120436f2d70726f636573736f722e00000000000000602082015250565b6000610b8a603983610ab1565b9150610b9582610b2e565b604082019050919050565b60006020820190508181036000830152610bb981610b7d565b9050919050565b610bc9816108c5565b82525050565b6000604082019050610be46000830185610bc0565b610bf16020830184610a87565b9392505050565b600081519050919050565b600082825260208201905092915050565b60005b83811015610c32578082015181840152602081019050610c17565b60008484015250505050565b6000601f19601f8301169050919050565b6000610c5a82610bf8565b610c648185610c03565b9350610c74818560208601610c14565b610c7d81610c3e565b840191505092915050565b7f4e487b7100000000000000000000000000000000000000000000000000000000600052602160045260246000fd5b60548110610cc857610cc7610c88565b5b50565b6000819050610cd982610cb7565b919050565b6000610ce982610ccb565b9050919050565b610cf981610cde565b82525050565b6000608082019050610d146000830187610bc0565b610d216020830186610a87565b8181036040830152610d338185610c4f565b9050610d426060830184610cf0565b95945050505050565b610d54816108c5565b8114610d5f57600080fd5b50565b600081519050610d7181610d4b565b92915050565b600060208284031215610d8d57610d8c6108bb565b5b6000610d9b84828501610d62565b91505092915050565b60008115159050919050565b610db981610da4565b8114610dc457600080fd5b50565b600081519050610dd681610db0565b92915050565b600060208284031215610df257610df16108bb565b5b6000610e0084828501610dc7565b91505092915050565b6000819050919050565b610e1c81610e09565b82525050565b6000604082019050610e376000830185610e13565b610e446020830184610cf0565b9392505050565b60007fff0000000000000000000000000000000000000000000000000000000000000082169050919050565b610e8081610e4b565b82525050565b6000606082019050610e9b6000830186610bc0565b610ea86020830185610bc0565b610eb56040830184610e77565b94935050505056fea2646970667358221220151c2743db9e7546b9de4e0717b9d368824d96176af447ad4df8d2c1c9b40d0b64736f6c63430008180033",
  "linkReferences": {},
  "deployedLinkReferences": {}
}