{
  "_format": "hh-sol-artifact-1",
  "contractName": "ConfidentialAlpha",
  "sourceName": "contracts/ConfidentialAlpha.sol",
  "abi": [
    {
      "inputs": [],
      "stateMutability": "nonpayable",
      "type": "constructor"
    },
    {
      "anonymous": false,
      "inputs": [
        {
          "indexed": true,
          "internalType": "address",
          "name": "user",
          "type": "address"
        },
        {
          "indexed": false,
          "internalType": "string",
          "name": "message",
          "type": "string"
        }
      ],
      "name": "AlphaComputed",
      "type": "event"
    },
    {
      "inputs": [
        {
          "internalType": "einput",
          "name": "inputHandle",
          "type": "bytes32"
        },
        {
          "internalType": "bytes",
          "name": "inputProof",
          "type": "bytes"
        }
      ],
      "name": "computeConfidentialAlpha",
      "outputs": [
        {
          "internalType": "ebool",
          "name": "",
          "type": "uint256"
        }
      ],
      "stateMutability": "nonpayable",
      "type": "function"
    },
    {
      "inputs": [],
      "name": "owner",
      "outputs": [
        {
          "internalType": "address",
          "name": "",
          "type": "address"
        }
      ],
      "stateMutability": "view",
      "type": "function"
    },
    {
      "inputs": [
        {
          "internalType": "ebool",
          "name": "decision",
          "type": "uint256"
        }
      ],
      "name": "requestAgentExecution",
      "outputs": [],
      "stateMutability": "nonpayable",
      "type": "function"
    },
    {
      "inputs": [
        {
          "internalType": "einput",
          "name": "inputHandle",
          "type": "bytes32"
        },
        {
          "internalType": "bytes",
          "name": "inputProof",
          "type": "bytes"
        }
      ],
      "name": "setSpendingGoal",
      "outputs": [],
      "stateMutability": "nonpayable",
      "type": "function"
    }
  ],
  "bytecode": "0x608060405234801561001057600080fd5b5033600160006101000a81548173ffffffffffffffffffffffffffffffffffffffff021916908373ffffffffffffffffffffffffffffffffffffffff160217905550610baf806100616000396000f3fe608060405234801561001057600080fd5b506004361061004c5760003560e01c806309513854146100515780631deba9081461006d5780637f54ffd41461009d5780638da5cb5b146100b9575b600080fd5b61006b600480360381019061006691906106de565b6100d7565b005b610087600480360381019061008291906106de565b610130565b6040516100949190610783565b60405180910390f35b6100b760048036038101906100b291906107ca565b6101a7565b005b6100c1610286565b6040516100ce9190610838565b60405180910390f35b6101258383838080601f016020809104026020016040519081016040528093929190818152602001838380828437600081840152601f19601f820116905080830192505050505050506102ac565b600081905550505050565b6000806101818585858080601f016020809104026020016040519081016040528093929190818152602001838380828437600081840152601f19601f820116905080830192505050505050506102ac565b90506000610199826101946103206102c2565b6102d6565b905080925050509392505050565b600160009054906101000a900473ffffffffffffffffffffffffffffffffffffffff1673ffffffffffffffffffffffffffffffffffffffff163373ffffffffffffffffffffffffffffffffffffffff1614610237576040517f08c379a000000000000000000000000000000000000000000000000000000000815260040161022e906108b0565b60405180910390fd5b3373ffffffffffffffffffffffffffffffffffffffff167f4919576132c5d1795a1a91d25cf0a5010a4641f4b268b74db0a2b4188bccc64960405161027b90610942565b60405180910390a250565b600160009054906101000a900473ffffffffffffffffffffffffffffffffffffffff1681565b60006102ba83836004610320565b905092915050565b60006102cf826004610471565b9050919050565b60006102e18361052c565b6102f2576102ef60006102c2565b92505b6102fb8261052c565b61030c5761030960006102c2565b91505b61031883836000610539565b905092915050565b60008061032b610611565b90508060010160009054906101000a900473ffffffffffffffffffffffffffffffffffffffff1673ffffffffffffffffffffffffffffffffffffffff16632e817ff08633878760f81b6040518563ffffffff1660e01b81526004016103939493929190610a3c565b6020604051808303816000875af11580156103b2573d6000803e3d6000fd5b505050506040513d601f19601f820116820180604052508101906103d69190610ab4565b91508060000160009054906101000a900473ffffffffffffffffffffffffffffffffffffffff1673ffffffffffffffffffffffffffffffffffffffff16638d9c9c9283336040518363ffffffff1660e01b8152600401610437929190610af0565b600060405180830381600087803b15801561045157600080fd5b505af1158015610465573d6000803e3d6000fd5b50505050509392505050565b60008061047c610611565b90508060010160009054906101000a900473ffffffffffffffffffffffffffffffffffffffff1673ffffffffffffffffffffffffffffffffffffffff1663e71746b8858560f81b6040518363ffffffff1660e01b81526004016104e0929190610b19565b6020604051808303816000875af11580156104ff573d6000803e3d6000fd5b505050506040513d601f19601f820116820180604052508101906105239190610ab4565b91505092915050565b6000808214159050919050565b600080821561054e57600160f81b9050610556565b600060f81b90505b6000610560610611565b90508060010160009054906101000a900473ffffffffffffffffffffffffffffffffffffffff1673ffffffffffffffffffffffffffffffffffffffff16633e63c50a8787856040518463ffffffff1660e01b81526004016105c393929190610b42565b6020604051808303816000875af11580156105e2573d6000803e3d6000fd5b505050506040513d601f19601f820116820180604052508101906106069190610ab4565b925050509392505050565b60007fed8d60e34876f751cc8b014c560745351147d9de11b9347c854e881b128ea600905090565b600080fd5b600080fd5b6000819050919050565b61065681610643565b811461066157600080fd5b50565b6000813590506106738161064d565b92915050565b600080fd5b600080fd5b600080fd5b60008083601f84011261069e5761069d610679565b5b8235905067ffffffffffffffff8111156106bb576106ba61067e565b5b6020830191508360018202830111156106d7576106d6610683565b5b9250929050565b6000806000604084860312156106f7576106f6610639565b5b600061070586828701610664565b935050602084013567ffffffffffffffff8111156107265761072561063e565b5b61073286828701610688565b92509250509250925092565b6000819050919050565b6000819050919050565b600061076d6107686107638461073e565b610748565b61073e565b9050919050565b61077d81610752565b82525050565b60006020820190506107986000830184610774565b92915050565b6107a78161073e565b81146107b257600080fd5b50565b6000813590506107c48161079e565b92915050565b6000602082840312156107e0576107df610639565b5b60006107ee848285016107b5565b91505092915050565b600073ffffffffffffffffffffffffffffffffffffffff82169050919050565b6000610822826107f7565b9050919050565b61083281610817565b82525050565b600060208201905061084d6000830184610829565b92915050565b600082825260208201905092915050565b7f4f6e6c79206167656e74206f776e65722063616e206578656375746500000000600082015250565b600061089a601c83610853565b91506108a582610864565b602082019050919050565b600060208201905081810360008301526108c98161088d565b9050919050565b7f457865637574696f6e206c6f67696320766572696669656420636f6e6669646560008201527f6e7469616c6c792e000000000000000000000000000000000000000000000000602082015250565b600061092c602883610853565b9150610937826108d0565b604082019050919050565b6000602082019050818103600083015261095b8161091f565b9050919050565b61096b81610643565b82525050565b600081519050919050565b600082825260208201905092915050565b60005b838110156109ab578082015181840152602081019050610990565b60008484015250505050565b6000601f19601f8301169050919050565b60006109d382610971565b6109dd818561097c565b93506109ed81856020860161098d565b6109f6816109b7565b840191505092915050565b60007fff0000000000000000000000000000000000000000000000000000000000000082169050919050565b610a3681610a01565b82525050565b6000608082019050610a516000830187610962565b610a5e6020830186610829565b8181036040830152610a7081856109c8565b9050610a7f6060830184610a2d565b95945050505050565b610a918161073e565b8114610a9c57600080fd5b50565b600081519050610aae81610a88565b92915050565b600060208284031215610aca57610ac9610639565b5b6000610ad884828501610a9f565b91505092915050565b610aea8161073e565b82525050565b6000604082019050610b056000830185610ae1565b610b126020830184610829565b9392505050565b6000604082019050610b2e6000830185610ae1565b610b3b6020830184610a2d565b9392505050565b6000606082019050610b576000830186610ae1565b610b646020830185610ae1565b610b716040830184610a2d565b94935050505056fea26469706673582212208b0a8dfe70925406e7b33eeeb9fa022eb6a06d4b2bbd938f01bfb0a59d8a467164736f6c63430008180033",
  "linkReferences": {},
  "deployedLinkReferences": {}
}